:040000000C94330029
:100004000C9400000C9400000C9400000C9400006C
:100014000C94AD000C9400000C9400000C940000AF
:100024000C9400000C9400000C9460000C940000EC
:100034000C9400000C9400000C9400000C9400003C
:100044000C9400000C9400000C9400000C9400002C
:10005400000000000000000000000A00040054003A
:100064000000F894EE27ECBBF1E0FBBFEBBFE5BF6B
:100074008DE0A2E0BB27ED938A95E9F780E098E054
:10008400A0E6ED930197E9F7EEE5F0E0859195910F
:10009400009761F0A591B59105901590BF01F0010D
:1000A40005900D920197E1F7FB01F0CFEFE5EDBF6D
:1000B400E8E0EEBFC0E6D2E00C9456030A921A922E
:1000C400FA926A937A938A939A93AA93BA93EA9345
:1000D400FA93EFB7EA93E3E8E2BF5394EEE1E51550
:1000E40061F555244394ECE3E41551F473944424EA
:1000F400E71531F463947724E8E1E61509F46624FE
:100104006C1471F47D1461F4A0917202E1E00E9418
:1001140064040E2EA42DEAE00E946904E02109F48F
:1001240006C0E0E0EA93AFE070D0AAE205C0E0E0E8
:10013400EA93AFE06AD0A0E040D0E991EFBFF99133
:10014400E991B991A9919991899179916991F990DC
:10015400199009901895EA93EFB7EA93E3E8E4BDA0
:100164009394EEE1E91579F499248394ECE3E8158A
:1001740051F4B3948824EB1531F4A394BB24E8E13F
:10018400EA1509F4AA24E991EFBFE9911895EFEF74
:10019400EABBE1B3E26CE1BBAEE00AD0A8E308D06D
:1001A40031D0BAD2A2E3B0E00E9456042BD0089515
:1001B400AA93E881EBBB969804C0AA93E881EBBBB1
:1001C400969A9198979A88E795E00197F1F797980E
:1001D40021960895BA93AA931A9310E0A981BA813B
:1001E400EE27A10FBE1FEC91E03049F0A981BA813E
:1001F400EE27A10FBE1FAC91E0DF1F5FEFCF188188
:1002040023960895A1E0D4DF0895AA93E981E0300C
:1002140019F4A881A05805C0A981A13019F4A881B6
:10022400A054C6DF22960895BA93AA93AC8177D2DC
:10023400A881B981EC93AC8179D2A881B981119656
:10024400EC93A881B9811296EAE3EC93AB8167D26F
:10025400A881B9811396EC93AB8168D2A881B98146
:100264001496EC93A881B9811596EAE3EC93AA81DC
:1002740056D2A881B9811696EC93AA8157D2A88147
:10028400B9811796EC93A881B981189656D219961C
:1002940054D21A9652D21B96E0E2EC93A0917202C9
:1002A400A13029F4A881B9811C96E1E404C0A88195
:1002B400B9811C96E0E2EC93A881B9811D963DD2E8
:1002C4001E963BD21F9639D25096E0E0EC932596C9
:1002D4000895E0917102F0E0309751F49D9B02C0C3
:1002E400E1E003C0859B03C0E2E0E0937102AFC08C
:1002F400E130A0E0FA0771F4859B06C0E42D22D218
:100304004E2EE1E0E09371029D9B03C0E3E0E09395
:1003140071029DC0E230A0E0FA0799F4859B0BC0FE
:1003240099248824BB24AA24E6E0E5BDE3E8E4BDDF
:10033400E4E0E09371029D9B03C0E5E0E093710269
:1003440086C0E330A0E0FA0771F4859B06C0E72D70
:10035400F9D17E2EE3E0E09371029D9B03C0E7E0B8
:10036400E093710274C0E430A0E0FA07C1F4859B05
:100374000DC0E4B5E03021F4E6E0E5BDE3E802C0F9
:10038400E0E0E5BDE4BDE4E0E09371029D9B06C0BE
:10039400E0E0E5BDE4BDE5E0E093710258C0E5307E
:1003A400A0E0FA0759F4859B03C0E6E0E0937102EC
:1003B4009D9B03C0E0E0E093710249C0E630A0E0F9
:1003C400FA0771F4859B06C0ED2DBCD1DE2EE6E064
:1003D400E09371029D9B03C0E8E0E093710237C093
:1003E400E730A0E0FA0771F4859B06C0E62DB2D190
:1003F4006E2EE7E0E09371029D9B03C0E0E0E09382
:10040400710225C0E830A0E0FA0771F4859B06C0AC
:10041400EC2DA0D1CE2EE8E0E09371029D9B03C0A9
:10042400E9E0E093710213C0E930A0E0FA0779F43F
:10043400859B06C0E1E0E0937202E0E0E093710284
:100444009D9B05C0E0E0E0937202E0937102089581
:10045400E0E088D1E0917102F0E0309729F585D190
:10046400E3E48AD1E4E5E0937502E9E6E0937602F9
:10047400EDE6E0937702E5E6E0937802E3E5E093C6
:100484007902E5E6E0937A02E4E7E0937B02EDE2A9
:10049400E0937C02E4E476D1EFE2E0938002E3E5CA
:1004A400E0938102E7E5F3C0E130A0E0FA07A1F4AC
:1004B4005CD1E4E461D16FD1E3E5E0937802E5E651
:1004C400E0937902E3E671D1EDE4E0938002E9E69A
:1004D400E0938102EEE6DBC0E230A0E0FA0741F4EB
:1004E40076D1E4E449D17AD180D1E4E785D1BDC0A5
:1004F400E330A0E0FA0751F438D1E4E43DD14BD124
:1005040085D1E8E4E0938002E2E7BEC0E430A0E0F5
:10051400FA0701F55CD1E4E42FD160D1E0E7E09380
:100524007702EFE2E0937802E2E5E0937902E5E610
:10053400E0937A02E3E7E0937B02EDE2E0937C024E
:10054400E3E420D1ECE6E0938002E2E7E093810269
:10055400EDE69DC0E530A0E0FA0789F55FD1E4E55A
:10056400E0936202EFE6E0936302E0E2E093640268
:10057400EDE4E0936502E1E6E0936602E9E6E093E8
:100584006702EEE652D1E4E4F7D0E1E4E0937502C9
:10059400ECE6E093760229D1EDE6E0937902E0E21D
:1005A400E0937A02E0937B02E0937C02E0937D0285
:1005B400E0937E02E0937F02E093800265C0E63020
:1005C400A0E0FA0751F446D1E4E4D6D04BD11ED1D1
:1005D400E8E4E0938002E2E757C0E730A0E0FA07DE
:1005E40039F4C3D0E4E4C8D0D6D046D14AD14FC000
:1005F400E830A0E0FA0739F42DD1E4E4BDD032D1DB
:100604003BD13FD144C0E930A0E0FA0709F04BC028
:1006140005D1E3E4E0936202E1E6E0936302EEE6EF
:10062400E0936402E3E6E0936502E5E6E0936602A4
:10063400ECE6E0936702E0E2F8D0E4E49DD0E3E482
:10064400E0937502EFE6E0937602EEE6E09377023C
:10065400E6E6E0937802E9E6E0937902E2E7E093E4
:100664007A02EDE6E0937B02E0E2E0937C02E1E4CF
:10067400E0937D02ECE6E0937E02E1E6E0937F0204
:10068400E2E7E0938002EDE6E0938102E0E2E093AA
:100694008202E0E0E0938302E1E064D0A3E7B2E009
:1006A40099DDE0E05FD00895E0E0EABBEBBBE7BB97
:1006B400E8BBE4BBE5BBE1BBE2BBE4E0E3BFE3E8EA
:1006C400E2BFE0E0ECBFEFBDEEBDEDBDECBDE7BDCC
:1006D400E6BDEBBDEABDE9BDE8BDE2BDE5BDE4BDF7
:1006E400E3BDE1E4E9BFE0E0E5BFE4BFEAB9E0E887
:1006F400E8B9E0E0E0BFE6B9EDB9E6BF7894A598C3
:100704008D9845DDE6DDA4DEACE052DD88EE93E0B5
:100714000197F1F7F7CFFFCFA0E6B2E05BCDB0E0F1
:10072400EAE0F0E00E948104E05D0895BB27EAE07E
:10073400F0E00E948604E05D0895E0E2EC93A88175
:10074400B9810895F0E03196DF01ECE3F0E00E9416
:1007540086040895F0E03196DF01E8E1F0E00E94BC
:1007640086040895EA93A0E050CD6A927A924A9260
:10077400A0E6B2E059DDD0CFE0937302EAE3E09360
:1007840074020895E0937D02EAE3E0937E02E1E4DB
:10079400E0937F020895E3E4E0937502E8E6E093D2
:1007A4007602E7E6E09377020895E0937A02EDE2B9
:1007B400E0937B02E3E4E0937C02EAE3E0937D02CE
:1007C400E7E4E0937E02EFE6E0937F020895AA92C5
:1007D400BA928A92A0E6B2E027DD9ECFE3E5E093E9
:1007E4007502E4E7E09376020895E1E6E093770288
:1007F400E2E7E09378020895E0937902EDE2E09372
:100804007A02E3E4E0937B02EAE30895EDE4E09303
:100814007802E9E6E0937902EEE6C7CFE3E4E093F9
:100824006002EAE3E09361020895E0936802E0E283
:10083400E0936902E0936A02E0936B02E0936C0236
:10084400E0936D02E0936E02E0936F02E0E0E093C8
:10085400700262CFCA92DA92E0E0EA93A0E6B2E0D4
:10086400E3DC5ACFE3E5E0937502E5E6E093760234
:10087400E4E7E09377020895E8E4E0937802E2E79E
:10088400BBCFE0937C02E6E4E0937D02E9E6E093EB
:100894007E02EEE6E0937F02E9E6E0938002E3E77E
:1008A400E0938102E8E60895109639F080ED97E030
:1008B4000197F1F7A8951197C9F70895F195E19576
:1008C400F0400895EA17E1E009F0EE270895AE1725
:1008D400E1E008F0EE2708950024112490E1AA0F26
:1008E400BB1F001C111C0E1A1F0A18F40E0E1F1E2B
:1008F40001C0A1609A9599F7FD01D001089512D025
:10090400EBDF0EF4DBDF0895E894B7FF04C0A09595
:10091400B09511966894F7FDD1DFDEDFFD010EF48A
:10092400CDDF0895E894F7FF02C0C8DF6894B7FFED
:1009340006C0A095B095119600F8039400FA0895A6
:00000001FF
