:060000000C9440000C947A
:1000060000000C9400000C9400000C9400000C946A
:1000160000000C9400000C9400000C9400000C945A
:1000260000000C9400000C9400000C9400000C944A
:100036006D000C9400000C949E000C9400000C942F
:1000460000000C9400000C9400000C940000102793
:10005600E80364000A00010000100001100001001E
:100066000000000000000000000000000100020087
:1000760066000A00040068000000F894EE27ECBB56
:10008600F1E0FBBFEBBFE5BF8DE0A2E0BB27ED9340
:100096008A95E9F780E098E0A0E6ED930197E9F705
:1000A600E2E7F0E085919591009761F0A591B59111
:1000B60005901590BF01F00105900D920197E1F7AB
:1000C600FB01F0CFEFE5EDBFE8E0EEBFC0E6D2E022
:1000D6000C948B03EA93FA93EFB7EA931A930A9375
:1000E6001BB10CB1E12FEC7189F4E82D8394F0E09B
:1000F600EF53FD4F0083E0E1E81509F48824A3944B
:10010600E0E1EA1519F4AA24689420F809911991F6
:1001160028C01A93AA20F1F3EB2DB394F0E0EF5325
:10012600FD4F1081E0E1EB1509F4BB24F894AA9485
:100136007894E12FEBC2EA93FA93EFB7EA93E09152
:10014600E102E03071F0E150E093E102EC2DC3945E
:10015600F0E0EF52FD4FE081ECB9E0E1EC1509F477
:10016600CC24E991EFBFF991E9911895AA93A09152
:10017600E102A031E1F3F894E091E102E03011F4FC
:100186005D9911C0ED2DD394F0E0EF52FD4FA8819B
:10019600A083E0E1ED1509F4DD24E091E102EF5FD3
:1001A600E093E10202C0E881ECB9789420C0EFEF59
:1001B600E7BBEAB3E26CEABBAEE009D0A8E307D03E
:1001C60028D0A2E3B0E00E94240423D00895AA9385
:1001D600E881E8BBDE9804C0AA93E881E8BBDE9A12
:1001E600D998DF9A88E795E00197F1F7DF9821968D
:1001F6000895BA93AA931A9310E00E94BF03EC9154
:10020600E03031F00E94BF03AC91E6DF1F5FF5CF0F
:1002160085C0A1E0DCDF0895AA93E981E03019F4F6
:10022600A881A05805C0A981A13019F4A881A054BD
:10023600CEDF8BC0BA93AA93ECDFE3E5E093B0027E
:10024600EEE6E093B102E4E60E94C503A881B98117
:10025600AC91C2DFE0E2E093B002E093B102E0E0ED
:10026600E093B2020E94D403E2E5E093B002E3E633
:10027600E093B102E6E70E94C503E881F981A18116
:10028600ABDFE1E00E94D803ADE4A6DFADE3A4DF77
:10029600A881B9811296ADDF58C06197BADFE3E550
:1002A600E883E5E6E983EEE6EA83E4E6EB83E9E65E
:1002B600EC83EEE6ED83E7E6EE83E0E2EF83EDE442
:1002C600E887E5E6E987E3E7EA87EB87E1E6EC8797
:1002D600E7E6ED87E5E6EE87E1E2EF87E0E0E88B2B
:1002E6000E94D803DE0185DFA4E6B0E00E94240464
:1002F60090DF61960895BA93AA931A9310E00E942C
:10030600BF03AC91A33231F00E94BF03AC912EDF44
:100316001F5FF5CF0E94BF03AC9128DF188123969B
:100326000895BA93AA93E881F981A181E92DF0E0B5
:10033600F096B0E0EA17FB0721F4A881B9817ADFCD
:1003460004C0ABDFA881B981D6DF229608951A933F
:10035600AA2009F4DBC1DDDE1E2F133269F40E94E8
:10036600DC03108353940E94DC03A0E0A083552491
:10037600A0E6B2E0D6DF04C00E94DC0310835394EB
:10038600C5C11A930A93E5B3EF60E5BB00E00330FD
:10039600E8F4E4B3E078E4BB14B2E02FA0E40E94F2
:1003A6002E04E129E4BB10E0143070F413B2E12FFF
:1003B600A8E00E942E04E12129F4A3E01A02F0012C
:1003C600E00F05C01F5FF0CF0F5FE1CFEFEF0991A0
:1003D600199108951A93D5DF1E2FAEE1B0E00E9461
:1003E6002404103071F4E2E0E71511F40E94E103F1
:1003F600E1E0E71531F4662021F40E94E103E1E033
:100406006E2E133071F4E2E0E71511F40E94EA0350
:10041600E1E0E71531F4662021F40E94EA03E1E009
:100426006E2E163071F4E2E0E71511F40E94F30324
:10043600E1E0E71531F4662021F40E94F303E1E0E0
:100446006E2E1930E9F4E2E0E71531F40E94FC0360
:10045600AAE2A083439412C0772059F4E1E07E2EED
:10046600E92DE05DE0938802E1E04E2ED2DEADE3B9
:1004760006C0E1E0E61521F4E2E07E2EAAE2ACDE5B
:10048600113091F4E2E0E71521F40E94FC030E948A
:100496000104E1E0E71541F4662031F40E94FC0313
:1004A6000E940104E1E06E2E143091F4E2E0E715BB
:1004B60021F40E94FC030E940604E1E0E71541F4E2
:1004C600662031F40E94FC030E940604E1E06E2ED1
:1004D600173091F4E2E0E71521F40E94FC030E9434
:1004E6000B04E1E0E71541F4662031F40E94FC03B9
:1004F6000E940B04E1E06E2E1A3091F4E2E0E7155B
:1005060021F40E94FC030E941004E1E0E71541F487
:10051600662031F40E94FC030E941004E1E06E2E76
:10052600123091F4E2E0E71521F40E94FC030E94E8
:100536001504E1E0E71541F4662031F40E94FC035E
:100546000E941504E1E06E2E153091F4E2E0E71505
:1005560021F40E94FC030E941A04E1E0E71541F42D
:10056600662031F40E94FC030E941A04E1E06E2E1C
:10057600183091F4E2E0E71521F40E94FC030E9492
:100586001F04E1E0E71541F4662031F40E94FC0304
:100596000E941F04E1E06E2E1B30A1F4E2E0E71595
:1005A60089F40E94FC03A3E2A08343940E94FC0307
:1005B600A081E0E00E943604439477246624A8E8EC
:1005C600B2E0AFDEA3C01A9324DEE5E4E093B00206
:1005D600EEE6E093B102E4E7E093B202E5E6E093EB
:1005E600B302E2E7E093B402E0E2E093B502EDE4A1
:1005F600E093B602E9E5E093B702E0E2E093B802E1
:10060600E9E4E093B902E4E4E093BA02EAE3E093B2
:10061600BB02E0E0E093BC02EA93A2E0FDDD0E94AB
:10062600D403AFDE1E2F1F3F21F0193011F01B300F
:1006360009F4F7CFE12FF0E0309711F411E035C05F
:10064600E130A0E0FA0711F412E02FC0E230A0E09A
:10065600FA0711F413E029C0E330A0E0FA0711F419
:1006660014E023C0E430A0E0FA0711F415E01DC041
:10067600E530A0E0FA0711F416E017C0E630A0E076
:10068600FA0711F417E011C0E730A0E0FA0711F4F9
:1006960018E00BC0E830A0E0FA0711F419E005C035
:1006A600EA30A0E0FA0709F410E0912EE9E4E093BD
:1006B600B002E4E4E093B102E0E2E093B202E3E7E1
:1006C600E093B302E5E6E093B402E4E7E093B50213
:1006D600E0E2E093B602E4E7E093B702EFE6E093E8
:1006E600B802EAE3E093B902E0E2E093BA02E0E09E
:1006F600E093BB02E1E00E94D8030E94D403A12F3D
:10070600A05D6ADDA4E6B0E00E9424041991089574
:10071600E0E0EABBEBBBE7BBE8BBE4BBE5BBE1BBA8
:10072600E2BBE3BFE2BFECBFEFBDEEBDEDBDECBD8E
:10073600E7BDE6BDEBBDEABDE9BDE8BDE2BDE5BD91
:10074600E4BDE3BDE9BFE5BFE4BFEBB9E8EDEAB957
:10075600E6E8E0BDE0E0E0BDE3E3E9B9E0E8E8B9FA
:10076600E0E0E0BFE6B9EDB9E6BF789420DD2BDF27
:10077600EEDD30DEFDCFFFCFA981BA81EE27A10FD6
:10078600BE1F0895E093B202E2E7E093B302EAE304
:10079600E093B402E0E0E093B502A0EBB2E00C9483
:1007A600FC00A0EBB2E00C94FC00EA93A0E00C94F1
:1007B6000F01E52DF0E0E05AFD4F0895E42DF0E03D
:1007C600E857FD4FA1E3A08343940C94EF00E42D7A
:1007D600F0E0E857FD4FA4E3A08343940C94EF00A8
:1007E600E42DF0E0E857FD4FA7E3A08343940C9473
:1007F600EF00E42DF0E0E857FD4F0895A2E3A08353
:1008060043940C94EF00A5E3A08343940C94EF006B
:10081600A8E3A08343940C94EF00A0E3A083439441
:100826000C94EF00A3E3A08343940C94EF00A6E39B
:10083600A08343940C94EF00A9E3A08343940C9403
:10084600EF00109639F080ED97E00197F1F7A89543
:100856001197C9F70895EE230E2EEA2F19F0E695A3
:100866000A94E9F70895EA17E1E009F0EE270895FA
:00000001FF
