:0E0000000C9430000C9400000C9400000C9442
:10000E0000000C9400000C9445010C9400000C941C
:10001E0000000C9400000C9400000C9400000C9452
:10002E005D000C9400000C9400000C9400000C94E5
:10003E0000000C9400000C9400000C9400000C9432
:10004E0000000C94000000000000040004005400A6
:10005E000000F894EE27ECBBF1E0FBBFEBBFE5BF71
:10006E008DE0A2E0BB27ED938A95E9F780E098E05A
:10007E00A0E6ED930197E9F7E8E5F0E0859195911B
:10008E00009761F0A591B59105901590BF01F00113
:10009E0005900D920197E1F7FB01F0CFEFE5EDBF73
:1000AE00E8E0EEBFC0E6D2E00C94220613D6E2BF23
:1000BE005394EEE1E51509F0E0C055247394E091F8
:1000CE007802E71509F0D9C07724E0E0E0937A02D0
:1000DE00A0917802A33019F0A03009F081C0A09150
:1000EE006002A537E1F5E091620205D6E091620269
:1000FE00EA93A5E739D210916202153068F401D661
:10010E0049F406D619F410D6EAE001C0E3E0E09314
:10011E00780202C01F5FF1CFE0917A02E030C9F49D
:10012E0015E0E09162021E1710F01F3F08F011C09B
:10013E0000D6A081A13059F4EBD529F4FFD5A0E06B
:10014E00A083EAE001C0E3E0E093780202C0115020
:10015E00E8CFE0917A02E03009F4F4D540C0A091E6
:10016E006002A436E1F5E0916202F0E0E259FD4F43
:10017E00A0E0A083E0916202EA93A4E6F5D110918B
:10018E0062021F3F88F4D5D5A081A13059F4E1D584
:10019E0029F4D4D5A0E0A083EAE001C0E3E0E09327
:1001AE00780202C01150EDCFE0917A02E03091F466
:1001BE0010E0E0916202E11768F0A3D549F4C9D5C9
:1001CE0019F4B2D5EAE001C0E3E0E093780202C090
:1001DE001F5FEFCFE0917A02E03009F4B3D54DC046
:1001EE00A0916002A53719F510916202153030F416
:1001FE0088D511F4BAD502C01F5FF8CFE0917A020C
:10020E00E03079F4109162021F3F58F492D5A0812C
:10021E00A13029F4E4E6E0936002A7D502C01150A4
:10022E00F3CFE0917A02E03009F48CD526C0A0918C
:10023E006002A43611F5109162021F3F40F479D589
:10024E00A081A13011F491D502C01150F6CFE091EA
:10025E007A02E03069F410916202153048F451D5FB
:10026E0029F4E5E7E093600280D502C01F5FF5CF69
:10027E00E0917A02E03009F465D5F8C02BD5E4BDE3
:10028E004394EEE1E41509F0F1C044246394E09147
:10029E007902E61509F0EAC06624E0E0E0937B02FD
:1002AE00A0917902A33029F0A0917902A03009F033
:1002BE008CC0A0916102A53709F041C0A9E6B2E059
:1002CE005BD5A5E751D110916302153098F45FD537
:1002DE00AC91A13069F461D539F41A93A5E744D1F4
:1002EE0056D5EC93EAE001C0E3E0E093790202C058
:1002FE001F5FEBCFE0917B02E030D9F415E0E09187
:10030E0063021E1710F01F3F08F013C052D5AC91B8
:10031E00A13069F442D539F41A93A4E625D149D512
:10032E00EC93EAE001C0E3E0E093790202C01150E1
:10033E00E6CFE0917B02E03009F441D545C0A091B3
:10034E006102A43609F040C0A3E7B2E015D5A4E6D9
:10035E000BD1109163021F3F98F42BD5AC91A130B5
:10036E0069F434D539F425D5EC931A93A4E6FCD070
:10037E00EAE001C0E3E0E093790202C01150EBCF56
:10038E00E0917B02E030D9F410E0E0916302E117D6
:10039E00B0F0FDD4AC91A13081F4E1E0E0937B02AA
:1003AE0015D539F4F4D4EC931A93A5E7DDD0EAE031
:1003BE0001C0E3E0E093790202C01F5FE6CFE09157
:1003CE007B02E03009F4FBD451C0A0916102A53745
:1003DE0029F510916302153040F4D9D4AC91A130B7
:1003EE0011F4FDD402C01F5FF6CFE0917B02E03026
:1003FE0079F4109163021F3F58F4DBD4AC91A13015
:10040E0029F4E4E6E0936102EAD402C01150F3CF7E
:10041E00E0917B02E03009F4D2D428C0A0916102B1
:10042E00A43621F5109163021F3F40F4C2D4AC9163
:10043E00A13011F4D4D402C01150F6CFE0917B025A
:10044E00E03079F410916302153058F4A0D4AC91D9
:10045E00A13029F4E5E7E0936102C1D402C01F5F29
:10046E00F3CFE0917A02E03009F4A9D41991E99121
:10047E00EFBFF991E991B991A991999189917991EA
:10048E006991F990199009901895B0D4DA9802C034
:10049E00ADD4DA9ADB9A83E08A95F1F7DB9880E99E
:1004AE0091E00197F1F7EBB3EF70AE2FE881E29593
:1004BE00E07FEA2BEBBBDB9A83E08A95F1F7DB98C2
:1004CE009ED421960895EFEFEABBA4E1B0E00E941E
:1004DE007B07A2E0DADFA8E2D8DFACE0D6DFA6E049
:1004EE00D4DFA1E0D2DF8BD40895BA93AA931A93E6
:1004FE000A9300E010E0F801AA81BB81AE0FBF1F86
:10050E00EC91E03051F0F801AA81BB81AE0FBF1F14
:10051E00AC91BEDF0F5F1F4FEECF198108811CC05B
:10052E00BA93AA93AB81A03019F4AA81A03108F036
:10053E0004C0EA81EF70E0680AC0AB81A13019F403
:10054E00AA81A03108F005C0EA81EF70E06CAE2FF1
:10055E009CDFA881B981C9DF24960895A1E095DFBB
:10056E004ED4A0E892DF0895AA93E981F0E0309787
:10057E0011F4909826C0E130A0E0FA0739F4A88172
:10058E00A53711F4919801C092981BC0E230A0E0FB
:10059E00FA0739F4A881A53711F4939801C09498FD
:1005AE0010C0E330A0E0FA0739F4A881A53711F4A2
:1005BE00959801C0969805C0E430A0E0FA0709F4BA
:1005CE00979822960895AA930E94B50710E000E02E
:1005DE0034E020E0AC81A53709F099C014D4A537DA
:1005EE0009F052C016D4E081AD81AE1780F011D45F
:1005FE00A081ED8113D4E081EF5F0E2FED81E01726
:10060E0028F011D409F4165F0F5FF8CF3CC001D467
:10061E000081053028F407D409F4302F0F5FF9CF8D
:10062E00F8D3E081EF5F0E2F301730F0FCD309F4D2
:10063E00165F1D5F0F5FF8CF032F0F3F28F4FCD31B
:10064E0009F4202F0150F9CFE32FE1500E2F02179E
:10065E0010F00F3F08F006C0EFD309F4165F1D5FD0
:10066E000150F5CFAD81BB27E22FEFD3309729F0A4
:10067E00ED81A22F0E948E0704C0A22FBB27ED8111
:10068E00E4D31E0F165F42C0BED3A43669F5C1D3A4
:10069E0000810F3F28F4D0D309F4202F0150F9CF59
:1006AE00B8D3E081E1500E2F021710F00F3F08F083
:1006BE0006C0C2D309F4165F1D5F0150F5CFAD81A0
:1006CE00A21768F0ED81E21BCAD3022FED81E0176D
:1006DE0028F0A9D309F4165F0F5FF8CF04C0AD81DF
:1006EE00E22FEA1BBCD312C094D3A081ED81EA178E
:1006FE0020F08FD3A081ED8103C08BD3E081AD813B
:10070E00EA1BA3E0EA02F0011E0F165F9AC07BD32C
:10071E00A43609F055C07DD3E081AD81EA1798F07B
:10072E0078D3E081AD817AD3E081E1500E2FED8157
:10073E000E1710F00F3F08F005C07ED309F4165FB8
:10074E000150F5CF3CC065D300810F3F28F474D320
:10075E0009F4202F0150F9CF5CD3E081E1500E2F28
:10076E00021710F00F3F08F006C066D309F4165FAB
:10077E001D5F0150F5CF022F053028F454D309F434
:10078E00302F0F5FF9CFE22FEF5F0E2F301730F0C3
:10079E004AD309F4165F1D5F0F5FF8CFAD81BB27FB
:1007AE00E32F53D3309729F0ED81A32F0E948E07AC
:1007BE0004C0A32FBB27ED8148D31E0F165F41C087
:1007CE0022D3A53761F525D30081053028F42BD32C
:1007DE0009F4302F0F5FF9CF1CD3E081EF5F0E2F9E
:1007EE00301730F029D309F4165F1D5F0F5FF8CF75
:1007FE00AD813A1780F0E32FEA1B31D3032FED8141
:10080E000E1710F00F3F08F005C016D309F4165F4F
:10081E000150F5CF03C0ED81E31B21D312C0F9D2F5
:10082E00A081ED81EA1720F0F4D2A081ED8103C002
:10083E00F0D2E081AD81EA1BA3E0EA02F0011E0FC7
:10084E00165FE12F0E94BA07279608951A930A930E
:10085E0010E000E0989B10C0E0E007D31E2FE1E00F
:10086E0004D30E2F011720F4E1E0E093690203C0D8
:10087E00E1E0E0936402909A999B10C0E0E0FAD216
:10088E001E2FE1E0F7D20E2F011720F4E1E0E093E6
:10089E006A0203C0E1E0E0936502919A9A9B10C050
:1008AE00E0E0EDD21E2FE1E0EAD20E2F011720F488
:1008BE00E1E0E093740203C0E1E0E0936F02929AEC
:1008CE009B9B10C0E0E0E0D21E2FE1E0DDD20E2FA8
:1008DE00011720F4E1E0E0936B0203C0E1E0E09346
:1008EE006602939A9C9B10C0E0E0D3D21E2FE1E0EB
:1008FE00D0D20E2F011720F4E1E0E093750203C071
:10090E00E1E0E0937002949A9D9B10C0E0E0C6D2A5
:10091E001E2FE1E0C3D20E2F011720F4E1E0E09389
:10092E006C0203C0E1E0E0936702959A9E9B10C0B3
:10093E00E0E0B9D21E2FE1E0B6D20E2F011720F45F
:10094E00E1E0E093760203C0E1E0E0937102969A53
:10095E009F9B10C0E0E0ACD21E2FE1E0A9D20E2F7B
:10096E00011720F4E1E0E093770203C0E1E0E093A9
:10097E007202979A5DC1B09B03C0E1E0E0936E02F4
:10098E00B19B0BC0A0916202A23020F0E1E0E09397
:10099E006F0203C0E1E0E0936502B29B0BC0A09131
:1009AE006202A33020F0E1E0E093700203C0E1E0C8
:1009BE00E0936602B39B0BC0A0916202A43020F0BC
:1009CE00E1E0E093710203C0E1E0E0936702B49BC3
:1009DE0003C0E1E0E0937202B59B03C0E1E0E09357
:1009EE007302B69B0BC0A0916302A23020F0E1E02F
:1009FE00E093740203C0E1E0E0936A02B79B0BC080
:100A0E00A0916302A33020F0E1E0E093750203C0F1
:100A1E00E1E0E0936B02C89B0BC0A0916302A4308F
:100A2E0020F0E1E0E093760203C0E1E0E0936C0297
:100A3E00C99B03C0E1E0E09377020895A297E6E434
:100A4E00E883ECE6E983EFE6EA83EB83E2E7EC8307
:100A5E00EAE3ED83E0916202E05DEE83E0E2EF8394
:100A6E00E887E987E4E4EA87E9E6EB87E2E7EC87E3
:100A7E00EAE3ED87A0916002A53711F4E5E507C022
:100A8E00A0916002A43611F4E4E401C0E3E5EE8720
:100A9E00A0917802AA3021F4A0916002A33709F444
:100AAE0002C0EAE201C0E0E2EF87E0E0E88BE6E4B4
:100ABE00E98BFE017296ACE6A083FE017396AFE65B
:100ACE00A083FE017496A083FE017596A2E7A08313
:100ADE00FE017696AAE3A083E0916302E05DEF8BC0
:100AEE00FE017896A0E2A083FE017996A083FE0116
:100AFE007A96A083FE017B96A4E4A083FE017C96E9
:100B0E00A9E6A083FE017D96A2E7A083FE017E9654
:100B1E00AAE3A083A0916102A53721F4FE017F967E
:100B2E00A5E50BC0A0916102A43621F4FE017F96CB
:100B3E00A4E403C0FE017F96A3E5A083A0917902F1
:100B4E00AA3021F4A0916102A33709F404C0FE017A
:100B5E00B096AAE203C0FE01B096A0E2A083FE0109
:100B6E00B196A0E0A083E0E0EA93EA93DE0112964C
:100B7E00D7DCE1E0EA93E0E0EA93DE015396D0DCC5
:100B8E00A29608951A930A9310E000E010E0123036
:100B9E0008F04EC092D1A081A33709F047C000E003
:100BAE00053008F043C08ED1E1E00E9489076E2F18
:100BBE00D001A259BD4FEE27A00FBE1FAC91E1E0B0
:100BCE000E948907E62B81F1E12FF0E0EE59FD4FEF
:100BDE00E081E01720F471D1A5E77FD119C0E12F94
:100BEE00F0E0EE59FD4FE0810E1720F466D1A4E639
:100BFE0074D10EC0E12FF0E0E858FD4FAAE0A083BB
:100C0E0061D1A13019F459D1A5E702C056D1A4E69D
:100C1E00A083103029F4E4E0E3BFE3E8E2BF04C0B0
:100C2E00E6E0E5BDE3E8E4BD0F5FBACF1F5FAFCFEF
:100C3E00099119910895E0E0EABBEBBBE7BBE8BB75
:100C4E00E4BBE5BBE1BBE2BBE3BFE2BFECBFEFBD84
:100C5E00EEBDEDBDECBDE7BDE6BDEBBDEABDE9BD4C
:100C6E00E8BDE2BDE5BDE4BDE3BDE1E4E9BFE0E022
:100C7E00E5BFE4BFEAB9E0E8E8B9E0E0E0BFE6B915
:100C8E00EDB9E6BF7894889A899A8A9A8B9A8C9A4B
:100C9E008D9A8E9A8F9AA098A198A298A398A498AC
:100CAE00A598A698A798B898B998BA98BB98BC98E2
:100CBE00BD98BE98BF98D098D19805DC4FDCE3E77D
:100CCE00E0936002E0936102C1DD55DE5BDFB6DECC
:100CDE00FBCFFFCF0A921A92FA926A937A938A9373
:100CEE009A93AA93BA93EA93FA93EFB7EA931A9365
:100CFE0010E0E3E80895F0E0EC59FD4FA0E0A0838A
:100D0E000895E12FF0E0EC59FD4FA081A130089538
:100D1E00E1E0E0937A02E0916202EF5FE09362021B
:100D2E00A09162021A1708951A93A5E71DDCE12F10
:100D3E00E2CFE12FF0E0E259FD4F08951A93A4E6B9
:100D4E0013DCF7CFE0E0E3BFE2BFE3E7E09360023E
:100D5E000895E1E0E0937A02E0916202E150E093BF
:100D6E006202A09162021A170895E3E0E0937802FE
:100D7E00E1E0E0937A020895E0916302F0E0AE0FB5
:100D8E00BF1FE0E0EC93E0916302EA930895A9E6B9
:100D9E00B2E0EE27A10FBE1F0895E1E0E0937B02C3
:100DAE00E0916302EF5FE0936302A09163021A1772
:100DBE000895A3E7B2E0EE27A10FBE1F0895E0E06D
:100DCE00E5BDE4BDE3E7E09361020895E0916302BF
:100DDE00E150E0936302A09163021A170895E3E0D5
:100DEE00E0937902E1E0E0937B020895AA93EBB3DE
:100DFE00EF70AE2FE881E07FEA2BEBBB0895A2E007
:100E0E00B0E00C947B07EE81F0E0E05AFD4FA0813C
:100E1E000895EE81F0E0EE59FD4F0895EA1BA3E030
:100E2E00EA02102DF6CFA5E00A9FF001EC59FD4F16
:100E3E00E130A0E0FA070895A5E00A9FF001E2591B
:100E4E00FD4FE130A0E0FA070895F0E00E94AE07F2
:100E5E00EA1BFB0BA3E0B0E00E949B070895A3E002
:100E6E00EA02F001E65F1E2F0895EA93E0E0EA93AE
:100E7E00A5E7A9CBEA93E1E0EA93A5E7A4CBEA9331
:100E8E00E1E0EA93A4E69FCBEA93E2E0EA93A5E7DA
:100E9E009ACBEA93E2E0EA93A4E695CBEA93E3E0F9
:100EAE00EA93A5E790CBEA93E3E0EA93A4E68BCB33
:100EBE00EA93E4E0EA93A4E686CBE12FF0E0E05A71
:100ECE00FD4F0895A5E01A9FF001EC59FD4FDF018B
:100EDE00EE27A00FBE1FAC910895A083E12FF0E086
:100EEE00E858FD4FA3E00895109639F080ED97E095
:100EFE000197F1F7A8951197C9F70895F195E19526
:100F0E00F0400895EA17E1E009F0EE270895EA1798
:100F1E00E1E008F4EE270895FA9FF02DEB9FF00D17
:100F2E00EA9FE02DF10D089504D0F6DF0EF4E6DF12
:100F3E000895E894F7FF02C0E1DF6894B7FF06C09A
:100F4E00A095B095119600F8039400FA08951B2E03
:100F5E00BF2FF12D1A2EAE2FE12D08953A932A931D
:100F6E001A930A9308953B812A8119810881089565
:00000001FF
